{
  "contractName": "Election",
  "abi": [
    {
      "constant": true,
      "inputs": [
        {
          "name": "",
          "type": "uint256"
        }
      ],
      "name": "candidates",
      "outputs": [
        {
          "name": "candidateId",
          "type": "uint256"
        },
        {
          "name": "candidateName",
          "type": "string"
        },
        {
          "name": "voteCount",
          "type": "uint256"
        }
      ],
      "payable": false,
      "stateMutability": "view",
      "type": "function",
      "signature": "0x3477ee2e"
    },
    {
      "inputs": [],
      "payable": false,
      "stateMutability": "view",
      "type": "function",
      "signature": "0xa9a981a3",
      "constant": true,
      "name": "candidateCount",
      "outputs": [
        {
          "name": "",
          "type": "uint256"
        }
      ]
    },
    {
      "inputs": [],
      "payable": false,
      "stateMutability": "nonpayable",
      "type": "constructor",
      "signature": "constructor"
    }
  ],
  "bytecode": "0x608060405234801561001057600080fd5b5060006001819055506100666040805190810160405280600881526020017f536f6d616e7368750000000000000000000000000000000000000000000000008152506100b8640100000000026401000000009004565b6100b36040805190810160405280600581526020017f5472756d700000000000000000000000000000000000000000000000000000008152506100b8640100000000026401000000009004565b6101d9565b600160008154809291906001019190505550606060405190810160405280600154815260200182815260200160008152506000806001548152602001908152602001600020600082015181600001556020820151816001019080519060200190610123929190610134565b506040820151816002015590505050565b828054600181600116156101000203166002900490600052602060002090601f016020900481019282601f1061017557805160ff19168380011785556101a3565b828001600101855582156101a3579182015b828111156101a2578251825591602001919060010190610187565b5b5090506101b091906101b4565b5090565b6101d691905b808211156101d25760008160009055506001016101ba565b5090565b90565b610232806101e86000396000f3fe60806040526004361061004c576000357c0100000000000000000000000000000000000000000000000000000000900463ffffffff1680633477ee2e14610051578063a9a981a314610113575b600080fd5b34801561005d57600080fd5b5061008a6004803603602081101561007457600080fd5b810190808035906020019092919050505061013e565b6040518084815260200180602001838152602001828103825284818151815260200191508051906020019080838360005b838110156100d65780820151818401526020810190506100bb565b50505050905090810190601f1680156101035780820380516001836020036101000a031916815260200191505b5094505050505060405180910390f35b34801561011f57600080fd5b50610128610200565b6040518082815260200191505060405180910390f35b6000602052806000526040600020600091509050806000015490806001018054600181600116156101000203166002900480601f0160208091040260200160405190810160405280929190818152602001828054600181600116156101000203166002900480156101f05780601f106101c5576101008083540402835291602001916101f0565b820191906000526020600020905b8154815290600101906020018083116101d357829003601f168201915b5050505050908060020154905083565b6001548156fea165627a7a72305820b30db230697f72a98441a0c540f26f66d090fb99431a247e808559d5a8ea12080029",
  "source": "pragma solidity ^0.5.0;\r\n\r\n\r\ncontract Election {\r\n\r\n    struct Candidate {\r\n        uint candidateId;\r\n        string candidateName;\r\n        uint voteCount;\r\n    }\r\n\r\n\r\n    mapping(uint => Candidate) public candidates;\r\n    uint public candidateCount;\r\n\r\n    constructor() public {\r\n        candidateCount = 0;\r\n        addCandidate(\"Somanshu\");\r\n        addCandidate(\"Trump\");\r\n    }\r\n\r\n    function addCandidate(string memory _name) private {\r\n        candidateCount++;\r\n        candidates[candidateCount] = Candidate(candidateCount, _name, 0);\r\n    }\r\n}",
  "sourcePath": "D:/tf_test19/contracts/Election.sol",
  "compiler": {
    "name": "solc",
    "version": "0.5.0+commit.1d4f565a.Emscripten.clang"
  },
  "schemaVersion": "3.0.6",
  "updatedAt": "2019-04-22T17:39:07.323Z",
  "devdoc": {
    "methods": {}
  },
  "userdoc": {
    "methods": {}
  }
}